:0300000002036A8E
:0C036A00787FE4F6D8FD75812B0203B10A
:1005FD00020A00140208000C021A00000A10ED8114
:08060D006BAB87AEEE89EFAF85
:080639007F287E71DEFEDFFC6C
:010641002296
:10062900758901758C3C758AAFD28CD2A9D2AF225B
:10061600D2B3D2B4D2B5D2B6D2B7D2B2D297D296DC
:03062600D2952248
:1002C70020B31112063930B30302036930B3FD7E40
:1002D700007F012220B41112063930B403020369EA
:1002E70030B4FD7E007F022220B50E12063920B5FC
:1002F7007130B5FD7E007F032220B60E120639202D
:10030700B66030B6FD7E007F042220B70E12063994
:1003170020B74F30B7FD7E007F052220B20E1206B0
:100327003920B23E30B2FD7E007F062220970E12A2
:10033700063920972D3097FD7E007F072220960EE5
:1003470012063920961C3096FD7E007F08222095E4
:100357000E12063920950B3095FD7E007F0922E4A9
:03036700FEFF2274
:0C01FE008E208F218A248B258D828C831B
:10020A007C007D0A1203F68E288F29AE20AF217C4E
:10021A00007D0A1203F68C2A8D2B7C007D0AAF82A0
:10022A00AE831203F6AB07AA06AE83AF827C007DCB
:10023A000A1203F6E52545246038E52945286018A1
:10024A00D291D292D293D29474102529F8E6F580ED
:10025A00C291D292D293D294D291D292D293D29480
:10026A007410252BF8E6F580D291C292D293D294DB
:10027A008000D291D292D293D294E5274526603457
:10028A00EB4A6017D291D292D293D29474102BF87F
:10029A00E6F580D291D292C293D294D291D292D2DE
:1002AA0093D29474102DF8E6F580D291D292D2931B
:0C02BA00C2948000D291D292D293D294D0
:0102C6002215
:10000E00D3E50F9400E50E9400500CE50B2509F591
:10001E000FE50A3508F50EE50B2509FFE50A35084B
:10002E00FED3E50F9FE50E9E5020E5092404FFE464
:10003E003508FEC3E50F9FE50E9E400ED2A5D2A455
:10004E00C2A3C2A2D2A1D2A08038E5092404FFE443
:10005E003508FED3E50F9FE50E9E503FC3E50F9585
:10006E0009E50E95084034D2A5E50F20E004D2A490
:10007E008007E50F30E002C2A4D2A3C2A2D2A1D261
:10008E00A0C3E50F9509FDE50E9508FCAF05FE75BD
:10009E0026007527017B017A008074D3E50F950940
:1000AE00E50E9508502BC3E50F9404E50E94004021
:1000BE0020C2A5D2A4D2A3D2A2D2A1C2A0752600DC
:1000CE007527017B017A00AD0FAC0EAF0FAE0E801F
:1000DE003ED3E50F9404E50E94005036C3E50E941E
:1000EE0000402FC2A5D2A4D2A3D2A2E50F20E004D5
:1000FE00D2A18007E50F30E002C2A1D2A075260082
:10010E007527017B017A00AD0FAC0EAF0FAE0E124C
:03011E0001FE22BD
:10058500D2A5D2A3D2A2D2A0E50F20E006D2A1D255
:10059500A48009E50F30E004C2A1C2A4E4F526F564
:0A05A50027FBFAFDFCFFFE0201FE39
:1005AF00C2A5D2A4D2A3C2A2D2A1D2A0E4F526F5AD
:0A05BF0027FBFAFDFCFFFE0201FE1F
:1005C900D2A5D2A4C2A3C2A2D2A1D2A0E4F526F593
:0A05D90027FBFAFDFCFFFE0201FE05
:1005E300C2A5D2A4D2A3D2A2D2A1C2A0E4F526F579
:0A05F30027FBFAFDFCFFFE0201FEEB
:10048100D2A5D2A4D2A3D2A2D2A1D2A01202C7EFE6
:1004910064064E7013E50B2509F50FE50A3508F5DD
:1004A1000E750C00750D0122EF64094E7006F50CF6
:1004B100750D0822EF64074E700A050BE50B70CC31
:1004C100050A80C8EF64084E700AE50B150B70BC75
:1004D100150A80B8EF4E70B4F526F5277B01FAFDB9
:0A04E100FCAF0BAE0A1201FE80A270
:1004EB00D2A5D2A4D2A3D2A2D2A1D2A01202C7EF7C
:1004FB0064064E7013E50B2509F50FE50A3508F573
:10050B000E750C00750D0122EF64094E7006F50C8B
:10051B00750D0722EF64074E700A0509E50970CCCB
:10052B00050880C8EF64084E700AE509150970BC10
:10053B00150880B8EF4E70B4F526752701FBFAADA0
:0A054B0009AC08FFFE1201FE80A2B9
:10012100120629120616750C00750D011202C7EF91
:100131004E6066EF64014E7014E50B2509F50FE57D
:100141000A3508F50E750C00750D01804CEF64023F
:100151004E7007F50C750D02803FEF64034E70077A
:10016100F50C750D038032EF64044E7007F50C75C4
:100171000D048025EF64054E7007F50C750D0580A3
:1001810018EF64074E7007F50C750D07800BEF64CF
:10019100084E7005F50C750D08E50D6401450C70F0
:1001A1000512000E8086E50D6402450C70061205ED
:1001B1008502012DE50D6403450C70061205AF02A1
:1001C100012DE50D6404450C70061205C902012DCF
:1001D100E50D6405450C70061205E302012DE50DE0
:1001E1006407450C700612048102012DE50D6408B7
:0D01F100450C600302012D1204EB02012DEC
:03000B0002055596
:10055500C0E0C0D0758C3C758AAF051BE51B7002E9
:10056500051AB290C39414E51A9400400EE50F15D0
:100575000F7002150E751A00751B00D0D0D0E03231
:10037600020121E493A3F8E493A34003F68001F27B
:1003860008DFF48029E493A3F85407240CC8C33388
:10039600C4540F4420C8834004F456800146F6DF57
:1003A600E4800B01020408102040809005FDE47EE5
:1003B600019360BCA3FF543F30E509541FFEE4934C
:1003C600A360010ECF54C025E060A840B8E493A313
:1003D600FAE493A3F8E493A3C8C582C8CAC583CA3E
:1003E600F0A3C8C582C8CAC583CADFE9DEE780BEF6
:0106150000E4
:1003F600C2D5EC30E709B2D5E4C39DFDE49CFCEE22
:1004060030E715B2D5E4C39FFFE49EFE12042CC369
:10041600E49DFDE49CFC800312042C30D507C3E464
:060426009FFFE49EFE2290
:10042C00BC000BBE0029EF8DF084FFADF022E4CCB4
:10043C00F875F008EF2FFFEE33FEEC33FCEE9DEC7D
:10044C00984005FCEE9DFE0FD5F0E9E4CEFD22EDC3
:10045C00F8F5F0EE8420D21CFEADF075F008EF2F0D
:10046C00FFED33FD4007985006D5F0F222C398FDFE
:05047C000FD5F0EA229B
:00000001FF
